:100000000C9497010C94B4260C948D260C94CB017F
:100010000C94CB010C94CB010C94CB010C94CB0130
:100020000C94CB010C94CB010C94CB010C94CB0120
:100030000C94CB010C94CB010C94CB010C94CB0110
:100040000C9443260C94CB010C9401270C94DB26D2
:100050000C94CB010C94CB010C94CB010C94CB01F0
:100060000C9433270C94CB01457869740052657366
:1000700074617274204E6F773F0053657420446141
:1000800074652F54696D653F004D6F6E7468004450
:100090006179005965617200486F7572004D696E33
:1000A00075746500537461727420486F75720053E3
:1000B000746F7020486F7572005374617274204DB4
:1000C000696E0053746F70204D696E00352E322EAC
:1000D00031005665722E20004F70656E20455653D4
:1000E0004500000E111D150E0000000E0C1F03062A
:1000F0000C0800080C0E0C08000000000E0E0E008C
:100100000000000E1517110E0000537663204C6599
:1001100076656C3A204C3200537663204C657665E8
:100120006C3A204C31004175746F204465746563EE
:10013000740053656C66205465737400506F776566
:1001400072204F6E0054656D7065726174757265D2
:100150002043686B004746492053656C6620546510
:10016000737400537475636B2052656C617920431E
:10017000686B0047726F756E6420436865636B003F
:1001800056656E7420526571276420436865636B01
:100190000044696F646520436865636B000000007C
:1001A0000800020100000304070000000000000036
:1001B00000382E322E300000000000250028002BD1
:1001C0000000000000240027002A000404040404A6
:1001D00004040402020202020203030303030301F4
:1001E00002040810204080010204081020010204CB
:1001F000081020544553542044495341424C45442F
:100200000052657374617274696E672E2E2E002021
:10021000202020304100484947482054454D500097
:10022000536C656570696E670047464349005445E5
:100230005354204641494C45440044697361626C03
:100240006564004F50454E2052454C41590053546F
:1002500055434B2052454C4159004E4F2047524F79
:10026000554E44004F56455243555252454E540048
:100270004F5645522054454D5045524154555245D4
:100280000047464349204641554C54005345525679
:100290004943452052455155495245440044494F30
:1002A000444520434845434B0056454E5420524553
:1002B0005155495245440045565345204552524FE9
:1002C00052004368617267696E6700436F6E6E65C6
:1002D0006374656400526561647900536574757078
:1002E0000053657474696E67730054696D65204CC2
:1002F000696D697400436861726765204C696D6956
:10030000740044656C61792054696D6572004461C4
:1003100074652F54696D6500526573746172740061
:100320004D61782043757272656E74006B281124DC
:100330001FBECFEFD8E0DEBFCDBF14BE0FB6F8941E
:10034000A8958091600088618093600010926000A1
:100350000FBE13E0A0E0B1E0E4E9F6E702C00590CB
:100360000D92AA36B107D9F726E0AAE6B3E001C09C
:100370001D92AA36B207E1F711E0C7E9D1E004C047
:100380002197FE010E942F38C639D107C9F70E9474
:10039000F7290C94483B0C9400008091130681705F
:1003A00008952FB7F894009761F440E45FE150930B
:1003B0008B0040938A009093E2058093E1052FBF64
:1003C000089510928B0010928A00F5CF2091550469
:1003D00081E0213208F040C0809131048111FCCFCE
:1003E0008091540492E09093310491E09093300412
:1003F0009FEF90932F0410922E0420932D04A4E3DA
:10040000B4E0EDE0F4E090E029132DC010920C046C
:1004100090910C04880F892B80930C0480910B041D
:10042000813029F510920B0480910C048093BB005D
:1004300085EC8093BC00809131048230E1F380919F
:100440002F048F3FB1F080912F048032A1F0809172
:100450002F04803391F084E01092330410925504FD
:100460001092320408953D9131939F5FCDCF85EE78
:10047000E0CF80E0F1CF82E0EFCF83E0EDCF91E0FD
:1004800090933204809354041092330410925504D4
:10049000089590913A0580913C0591110BC02091EF
:1004A0003B05211107C0811110C080913D058111CC
:1004B00003C00895981309C081E020913B059091F5
:1004C0003D05291303C080E0089581E008959091CF
:1004D00031049111FCCF91E090933104909330045A
:1004E0002FEF20932F0410922E04260F20932D041B
:1004F00090930C0490910C04880F892B80930C042A
:1005000080910B048130D9F410920B0480910C047B
:100510008093BB0085EC8093BC00809131048130D6
:10052000E1F380912E04861710F460912E04ADE063
:10053000B4E0EBEEF3E080E0861303C0089585EEAF
:10054000EACF9D9191938F5FF7CF0E94670210923F
:10055000EA038093E903089590E0FC01E152FE4F25
:10056000249185539E4FFC018491882399F090E05B
:10057000880F991FFC01EF53FE4FA591B491FC0128
:10058000E954FE4F859194918FB7F894EC91E22B4A
:10059000EC938FBF0895809114068E3F90F0809168
:1005A0001206909113068B7F909313068093120688
:1005B0008FEF809315061092140690E080E00C9463
:1005C000D101089508959C01265031092E3231053C
:1005D00098F445E8489F9001499F300D11243093CD
:1005E0008B0020938A0081E090E09093E205809355
:1005F000E10590E080E008959C01245331092D31FC
:10060000310578F4092E000CAA0BBB0B80569F4FC6
:10061000AF4FBF4F9C0185E0220F331F8A95E1F752
:10062000DECF81E090E00895E0911206F09113068C
:100630008823F9F080935406A82FB0E020E83EEE1E
:1006400046E350E00E944B3860935506709356067F
:10065000809357069093580680913905882319F0A6
:1006600081E080933E05F062F0931306E09312065A
:100670000895109255061092560610925706109241
:10068000580610925406FF7DF0931306E09312066D
:1006900010923E050895409112065091130688234A
:1006A000E9F080934306282F30E0A4E8B3E00E94ED
:1006B00035386093440670934506809346069093C0
:1006C000470680913905882319F081E080933E0523
:1006D0004061509313064093120608951092440609
:1006E0001092450610924606109247061092430655
:1006F0004F7E509313064093120610923E050895C4
:1007000090E0FC01E356FE4F2491FC01E152FE4FC4
:100710003491FC01E553FE4FE491EE23C9F022230E
:1007200039F0233001F1A8F4213019F1223029F1F8
:10073000F0E0EE0FFF1FE954FE4FA591B4918FB783
:10074000F894EC91611126C030953E233C938FBF05
:1007500008952730A9F02830C9F0243049F7809156
:1007600080008F7D03C0809180008F778093800010
:10077000DFCF84B58F7784BDDBCF84B58F7DFBCF92
:100780008091B0008F778093B000D2CF8091B0007D
:100790008F7DF9CF3E2BDACF1F93CF93DF93182FA6
:1007A000EB010E94AC02209739F460E0812FDF91C9
:1007B000CF911F910C948003CF3FD10511F461E0DC
:1007C000F5CFE12FF0E0E356FE4FE491E33031F155
:1007D00040F4E130B1F0E230E1F0C038D1057CF70F
:1007E000E4CFE73029F1E83059F1E430B1F78091F6
:1007F0008000806280938000D0938B00C0938A0039
:1008000004C084B5806884BDC7BDDF91CF911F91BE
:10081000089584B5806284BDC8BDF7CF8091800003
:10082000806880938000D0938900C0938800EDCFCA
:100830008091B00080688093B000C093B300E5CF92
:100840008091B00080628093B000C093B400DDCF8F
:100850003FB7F8948091C3039091C403A091C5035E
:10086000B091C60326B5A89B05C02F3F19F001968D
:10087000A11DB11D3FBFBA2FA92F982F8827BC01FA
:10088000CD01620F711D811D911D42E0660F771F22
:10089000881F991F4A95D1F708958F929F92AF9222
:1008A000BF92CF92DF92EF92FF926B017C010E9488
:1008B00028044B015C01C114D104E104F104B9F036
:1008C0000E942804681979098A099B09683E7340C7
:1008D0008105910580F321E0C21AD108E108F108F1
:1008E00088EE880E83E0981EA11CB11CE4CFFF9017
:1008F000EF90DF90CF90BF90AF909F908F90089532
:100900002FB7F8946091BF037091C0038091C10329
:100910009091C2032FBF08950895AF92BF92CF92D6
:10092000DF92EF92FF920F931F93CF93DF936C01AF
:100930007B018B01040F151FEB015E01AE18BF0890
:10094000C017D10759F06991D601ED91FC91019042
:10095000F081E02DC6010995892B79F7C501DF915A
:10096000CF911F910F91FF90EF90DF90CF90BF90AC
:10097000AF900895FC01538D448D252F30E0842FD6
:1009800090E0821B930B541710F0CF9608950197B7
:100990000895FC01918D828D981761F0A28DAE0FA4
:1009A000BF2FB11D5D968C91928D9F5F9F73928F2B
:1009B00090E008958FEF9FEF0895FC01918D828D57
:1009C000981731F0828DE80FF11D858D90E0089524
:1009D0008FEF9FEF0895FC01918D228D892F90E07C
:1009E000805C9F4F821B91098F739927089586E53C
:1009F00094E00E94EB0421E0892B09F420E0822F8F
:100A0000089580E090E0892B29F00E94F70481117D
:100A10000C9400000895FC01A48DA80FB92FB11DFE
:100A2000A35ABF4F2C91848D90E001968F73992724
:100A3000848FA689B7892C93A089B1898C91837002
:100A400080648C93938D848D981306C00288F389FB
:100A5000E02D80818F7D80830895EF92FF920F9328
:100A60001F93CF93DF93EC0181E0888F9B8D8C8D5A
:100A700098131AC0E889F989808185FF15C09FB74E
:100A8000F894EE89FF896083E889F9898081837011
:100A9000806480839FBF81E090E0DF91CF911F91C0
:100AA0000F91FF90EF900895F62E0B8D10E00F5FE1
:100AB0001F4F0F731127E02E8C8D8E110CC00FB6B7
:100AC00007FCFACFE889F989808185FFF5CFCE014F
:100AD0000E940B05F1CFEB8DEC0FFD2FF11DE35ABA
:100AE000FF4FF0829FB7F8940B8FEA89FB898081D2
:100AF0008062CFCFCF93DF93EC01888D8823B9F04C
:100B0000AA89BB89E889F9898C9185FD03C0808118
:100B100086FD0DC00FB607FCF7CF8C9185FFF2CF95
:100B2000808185FFEDCFCE010E940B05E9CFDF91DB
:100B3000CF91089585ED8093BC008091BC0084FD29
:100B4000FCCF109231040895613298F42091310461
:100B5000243089F460939603282FA6E7B3E0FC01C4
:100B60008E2F821B861710F080E0089581918D935F
:100B7000F7CF81E0089582E00895FC0110AE128263
:100B800012A20895FC0190819923D9F080ED890F7C
:100B90008A3050F08FEB890F863088F08FE9890F0B
:100BA0008630F0F489EA890F91819923D1F08295FA
:100BB000807F20ED290F2A3030F4820F089589ECD0
:100BC000F2CF80E0F1CF2FEB290F263018F49753A6
:100BD000890F08952FE9290F263010F49755F8CF83
:100BE00080E0089586E594E00C942D0586E594E078
:100BF0000C94C90486E594E00C94EB04CF93DF9346
:100C0000EC0164EF71E080E090E00E944D048C8183
:100C1000882339F0813041F08AE895E0DF91CF9167
:100C2000089584E995E0FACF8FE895E0F7CFCF9269
:100C3000DF92EF92FF921F93CF93DF93142F1092C6
:100C4000E803C8EED3E02AE0C22ED12CE12CF12C2F
:100C5000A70196010E94EE37605D6A93B901CA014F
:100C60001150611571058105910591F7111684F3F5
:100C7000CE01DF91CF911F91FF90EF90DF90CF9049
:100C80000895CF92DF92EF92FF926B017C01A895BD
:100C900084E0C816D104E104F10460F063E070E080
:100CA00080E090E00E944D0483E0C81AD108E1087A
:100CB000F108EDCFC701B601FF90EF90DF90CF9024
:100CC0000C944D04DC01ED91FC91119791811296E9
:100CD0008C91892B818308956115710561F06130D4
:100CE0007105A1F4DC01ED91FC911197228112961E
:100CF0003C91232B2283DC01ED91FC911197218102
:100D000012968C9180958223818308950C946206BB
:100D1000FC0180818770806480937C0080917A00E0
:100D2000806480937A0080917A0086FDFCCF809168
:100D300078009091790008952F923F924F925F92A0
:100D40006F927F928F929F92AF92BF92CF92DF92DB
:100D5000EF92FF920F931F93CF93DF9300D000D0B9
:100D600000D0CDB7DEB7A8950E94800469837A834E
:100D70008B839C831E821D8201E0412C512C320109
:100D800010E0C12CD12C76010E9480044B015C0143
:100D9000DC01CB0129813A814B815C81821B930B61
:100DA000A40BB50B8397A105B10508F0A3C083EF91
:100DB00095E00E948806FC0101111CC091E031E021
:100DC000231632E0330608F490E081E0E13042E09F
:100DD000F40708F480E0981769F0D501C40184197C
:100DE0009509A609B7090697A105B10518F01F5F77
:100DF00024013501113020F0133028F01330B9F000
:100E000000E01F01C1CFBF0190E080E07250810976
:100E100091099B01AC010E94AA37C60ED71EE81E9D
:100E2000F91E8D819E8101969E838D83E9CF8D81F0
:100E30009E819C0150E040E0C701B6010E94EE3760
:100E400049015A0180E090E0A0E0B0E4281739079A
:100E50004A075B0740F462E0B695A795979587959A
:100E60006A95D1F7F3CF40E050E0BA010097A105B1
:100E7000B105F9F06C017D01C40ED51EE61EF71E0A
:100E800076956795579547958C149D04AE04BF04DD
:100E900040F08C189D08AE08BF08480F591F6A1F04
:100EA0007B1F22E0B695A795979587952A95D1F750
:100EB000DDCF409348065093490660934A067093ED
:100EC0004B0626960FB6F894DEBF0FBECDBFDF915E
:100ED000CF911F910F91FF90EF90DF90CF90BF9037
:100EE000AF909F908F907F906F905F904F903F90CA
:100EF0002F900895109248061092490610924A06C3
:100F000010924B06A895DDCF0895E091EA038091F9
:100F1000E903E81730F4F0E0E551FC4F808190E000
:100F200008958FEF9FEF08959091EA038091E90370
:100F30002FEF3FEF981748F4E92FF0E0E551FC4F11
:100F4000208130E09F5F9093EA03C901089580916A
:100F5000E9039091EA03891B990B0895CF92DF92E0
:100F6000EF92FF920F931F93CF93DF937C01CB01FE
:100F70008A0120913204222389F0EB016B01C40E17
:100F8000D51ECC15DD0569F06991D701ED91FC9175
:100F90000190F081E02DC7010995F3CF642F0E94E5
:100FA000A405C801DF91CF911F910F91FF90EF90A1
:100FB000DF90CF900895CF93DF931F92CDB7DEB728
:100FC0006983209132042223F9F0209155042032C4
:100FD00058F021E030E0FC013383228390E080E090
:100FE0000F90DF91CF91089580913304E82FF0E0C6
:100FF000EC5CFB4F998190838F5F809333048093E7
:10100000550481E090E0ECCF61E0CE0101960E94B2
:10101000A405F7CF682F85ED95E00C94DB07CF93FF
:10102000C82F88E10E943F028C2F0E940A080E946C
:10103000E60162E088E10E9467021092EA03809371
:10104000E90385ED95E00E949407C82F85ED95E0B2
:101050000E94940720E03C2FA901482BCA01CF91A0
:101060000895CF93DF9390914D05992311F097E068
:10107000892720EC31E080FF02C020E831E0309386
:10108000500520934F0581FF09C020914F053091F5
:1010900050052F773093500520934F0582FF09C0EC
:1010A00080914F05909150059E7F909350058093BD
:1010B0004F05D0914F05C091500580914C0580623D
:1010C0000E943F0282E10E940A088D2F0E940A08B6
:1010D0008C2F0E940A080E94E6018111FCCFDF914B
:1010E000CF9108959091510590FF02C0811187E042
:1010F00090914E0591110C9431080895DF92EF9272
:10110000FF920F931F93CF93DF9300D000D000D0B6
:10111000CDB7DEB788E60E943F0260E085ED95E03E
:101120000E94DB070E94E60167E070E088E690E03D
:101130000E94A50285ED95E00E9494078F77282FE5
:1011400030E094E0359527959A95E1F7922F990F25
:10115000990F122F191B110F180F85ED95E00E94A2
:1011600094079C0144E0359527954A95E1F72F7047
:101170003327922F990F990F022F091B000F080F89
:1011800085ED95E00E9494079C0154E035952795E4
:101190005A95E1F72F703327922F990F990FF22E5E
:1011A000F91AFF0CF80E85ED95E00E94940785ED85
:1011B00095E00E9494079C0164E0359527956A9517
:1011C000E1F72F703327922F990F990FE22EE91A2A
:1011D000EE0CE80E85ED95E00E9494079C0174E00A
:1011E000359527957A95E1F72F703327922F990F30
:1011F000990FD22ED91ADD0CD80E85ED95E00E94FC
:101200009407AC01E4E055954795EA95E1F74F70F6
:101210005527942F990F990F242F291B220F280F40
:101220003D2DA701B80180E090E026960FB6F89416
:10123000DEBF0FBECDBFDF91CF911F910F91FF9009
:10124000EF90DF900895CF93DF9300D000D000D0CF
:10125000CDB7DEB780913905882371F10E9449022C
:10126000882351F10E947E0820913A054CE3809139
:101270003B0590E0249F800D911D112470913C0549
:1012800020913D0530E0749F200D311D112470E048
:10129000549F600D711D112428173907B0F4681789
:1012A000790730F026173707A8F08617970780F0E0
:1012B00081E06217730760F426960FB6F894DEBFDC
:1012C0000FBECDBFDF91CF9108956817790780F7E2
:1012D00080E0F2CF81E0F0CF1F93CF93DF93EC015A
:1012E00088E60E943F0260E085ED95E00E94DB0702
:1012F0002D811AE0822F612F0E94BA37682F660F66
:10130000680F660F620F85ED95E00E94DB072C8168
:10131000822F612F0E94BA37682F660F680F660F01
:10132000620F85ED95E00E94DB072B81822F612FF4
:101330000E94BA37682F660F680F660F620F85ED3F
:1013400095E00E94DB0760E085ED95E00E94DB07F9
:101350002A81822F612F0E94BA37682F660F680F8B
:10136000660F620F85ED95E00E94DB072981822FD1
:10137000612F0E94BA37682F660F680F660F620FE1
:1013800085ED95E00E94DB072881822F612F0E9466
:10139000BA37682F660F680F660F620F85ED95E00C
:1013A0000E94DB0760E085ED95E00E94DB07DF919E
:1013B000CF911F910C94E601CF93C62FFC0181853C
:1013C00080620E943F0283E10E940A088C2F0E94E3
:1013D0000A080E94E6018111FCCFCF910895FF9287
:1013E0000F931F93CF93DF938C01D62FF42EFC0124
:1013F000C58564FDC061D5FDC860D6FDC460D7FD5C
:10140000C260FF2029F1C06A6C2FC8010E94DC096C
:101410006C2F6F7DC8010E94DC09F801C585D0FDE5
:10142000C061D1FDC860D2FDC460D3FDC260FF20A1
:1014300089F0C06A6C2FC8010E94DC096C2F6F7D97
:10144000C801DF91CF911F910F91FF900C94DC099F
:10145000C062DACFC062EECFFC012385222319F0EF
:1014600041E00E94EF0981E090E0089580913E05FF
:1014700081110DC080913905882349F00E944902ED
:10148000882329F066E083E495E00C942C0A089503
:10149000CF93DF93CDB7DEB728970FB6F894DEBFB2
:1014A0000FBECDBFFC012385222339F128E0E4E003
:1014B000F1E0DE01119601900D922A95E1F7FC0111
:1014C0002781241710F44FEF420F50E0440F551FAF
:1014D00021E030E02C0F3D1F420F531FFA01208105
:1014E000620F606840E028960FB6F894DEBF0FBE2A
:1014F000CDBFDF91CF910C94EF0928960FB6F894E9
:10150000DEBF0FBECDBFDF91CF910895CF9341E0F5
:1015100060E083E495E00E94480AC0E160E283E471
:1015200095E00E942C0AC150C9F741E060E083E4D5
:1015300095E0CF910C94480AFC012385222341F0C9
:1015400040E061E00E94EF098BE39FE10197F1F732
:101550000895DC011496EC91149715968C91E81778
:1015600040F4F0E0EE0FFF1FE859FE4F80819181BB
:10157000089583E495E00E949C0A90E080E008953D
:1015800090E080E00895FC0192810190F081E02DCF
:101590008281662319F0982B928308959095982361
:1015A000FBCF8091420660E0882341F185E00E94F4
:1015B000800360E086E00E94800360E08AEF95E0AF
:1015C0000E94C30A80911206909113068F7B90931C
:1015D0001306809312060E9480046093270670937E
:1015E00028068093290690932A0610924C061092A2
:1015F0004D0610924E0610924F06089584EF95E026
:101600000E94C30A60E087EF95E00E94C30AD5CF2D
:101610008091E805882321F081E08093E705089513
:101620008091120690911306806890931306809320
:1016300012060E94D10A90E080E00E94D10181E070
:101640008093E605089560E088E396E00E94C30A6F
:1016500061E08BE396E00E94C30A6CE271E080E0F7
:1016600090E00E944D0460E088E396E00E94C30A87
:1016700060E08BE396E00E94C30A1092370608955B
:1016800061E088E396E00E94C30A60E08BE396E0A5
:101690000E94C30A6CE271E080E090E00E944D0479
:1016A00060E088E396E00E94C30A60E08BE396E086
:1016B0000E94C30A81E0809337060895AF92BF92DB
:1016C000CF92DF92EF92FF920F931F93CF93DF930E
:1016D0007C016B0184E6A82EB12C0FEF13E0D0E063
:1016E000C0E082EF95E00E948806C817D90708F489
:1016F00044C08017910708F48C0121E0A21AB108B8
:1017000081F78091E1059091E205029711F10E9425
:10171000CD012091120630911306882381F13460A7
:1017200030931306209312068091120690911306AF
:10173000CB36E3E0DE0728F19E7F9260909313069C
:101740008093120697FD05C08091370681110E9493
:10175000230BE114F10431F0F70111830083F6014A
:10176000D183C083DF91CF911F910F91FF90EF90B4
:10177000DF90CF90BF90AF900895EC01BECF3B7F3C
:10178000CFCF9160909313068093120697FDE1CF1F
:10179000809137068111DDCF0E94400BDACFFC012A
:1017A000A081B1819C918281982381E009F480E03D
:1017B0000895A8951092E8051092E70583EE95E04C
:1017C0000E94CF0B882321F081E08093E6050895E5
:1017D0001092E6050895EF92FF920F931F93CF9317
:1017E000DF93C4E1D0E0A89583EE95E00E94CF0B93
:1017F000882319F162E370E080E090E00E944D04DC
:10180000219789F782E012C0C8E2D0E0A89583EE64
:1018100095E00E94CF0B8823A1F162E370E080E0A5
:1018200090E00E944D04219789F783E0DF91CF91EA
:101830001F910F91FF90EF90089581E08093E8054C
:101840001092E705CDE3D0E08FE2E82E82E8F82E93
:1018500003E312E88091E7058111D6CF2197A1F229
:1018600061E089EE95E00E94C30AC7010197F1F794
:1018700060E089EE95E00E94C30AC8010197F1F784
:10188000E9CF68EE73E080E090E00E94410610929C
:10189000E6051092E80581E09091E705992331F281
:1018A00080E0C4CFCF92DF92EF92FF92CF93DF938D
:1018B0000E9480046B017C01D1E0C2E0CC2371F076
:1018C0008DEF95E00E94CF0B882341F0DD2389F056
:1018D00008C0C1110EC0D0E0C0E016C0DD23D9F3AE
:1018E000C0E080E096E00E94CF0BD82F882389F3D8
:1018F000D1E00E9480046C197D098E099F09643132
:10190000710581059105D0F28C2F8D2BDF91CF9140
:10191000FF90EF90DF90CF9008958091690680FF4F
:1019200030C08E7F8093690660916506709166066F
:101930008091670690916806611571058105910592
:1019400001F120E13EE040E050E00E94EE3780915E
:10195000610690916206A0916306B0916406BA0197
:10196000A901480F591F6A1F7B1F409361065093BE
:10197000620660936306709364068DE090E00C94B9
:101980008D370895EF92FF920F931F93CF93DF93BC
:101990007B01482F60E083E495E00E94480AE7015C
:1019A00009900020E9F72197CE19C13108F0C0E174
:1019B000DE2D8701802F8D1B8C1740F4F80161917B
:1019C0008F0183E495E00E942C0AF4CFC03139F0F6
:1019D00060E283E495E00E942C0ACF5FF7CFDF91AD
:1019E000CF911F910F91FF90EF900895CF93DF93C8
:1019F000EC0140E150E082E595E00E945C371092F6
:101A0000620562E575E0CE01DF91CF910C94C20CC6
:101A1000CF93DF93EB01BC0190E080E00E94F60CD5
:101A2000BE0181E090E0DF91CF910C94F60CBC01F7
:101A300083EF91E00E94080D6CED75E080E090E08E
:101A40000C944D0490E080E00E94D10161E072E0CE
:101A500081E090E00E94F60C8091120686FF06C09D
:101A600068EB7BE080E090E00E94410688E19EE028
:101A70000FB6F894A895809360000FBE9093600015
:101A80006CED75E080E090E00C944D04DC01149660
:101A9000EC91149715962C91E21740F4F0E0EE0FBC
:101AA000FF1FE85AFE4F808191810895FC01148246
:101AB0000E94220D88EC95E00895FC0184818F5FDF
:101AC00084839581981708F41482E48168E670E0B5
:101AD000E91750F4F0E0EE0FFF1FE85AFE4F0190B7
:101AE000F081E02D6281738181E090E00C94F60C2E
:101AF000FC0114826281738190E080E00E94F60C08
:101B00006091C3057091C40581E090E00C94F60CDF
:101B1000CF93DF93DC0114968C9114978F5F14960A
:101B20008C93149715969C911597981718F4149602
:101B30001C92149716968C9116971496EC91149704
:101B40008823A1F0CE2FD0E0CC0FDD1FC859DE4F87
:101B50002881398145E02B37340719F02657354065
:101B600029F4EF5F1496EC931497E7CF68E670E0E2
:101B7000E91750F4F0E0EE0FFF1FE859FE4F019017
:101B8000F081E02D6281738181E090E0DF91CF915F
:101B90000C94F60CCF93DF93EC011C829E81992369
:101BA00099F08C81E82FF0E0EE0FFF1FE859FE4F0F
:101BB0002081318145E02B37340719F02657354015
:101BC00019F48F5F8C83EBCF6A817B8190E080E09A
:101BD0000E94F60CEC81F0E0EE0FFF1FE859FE4F7B
:101BE0000190F081E02D6281738181E090E0DF91CE
:101BF000CF910C94F60CFC01148262E073E090E04B
:101C000080E00E94F60C60E372E081E090E00C94CA
:101C1000C20CFC0114826AE770E090E080E00E9450
:101C2000F60C67E372E081E090E00C94C20CFC01DA
:101C300014826DE670E090E080E00E94F60C67E3AD
:101C400072E081E090E00C94C20CFB010190002056
:101C5000E9F73197AF01461B570BDC01ED91FC9181
:101C60000280F381E02D09948F929F92AF92BF92F0
:101C7000EF92FF920F931F93CF93DF93CDB7DEB711
:101C8000A1970FB6F894DEBF0FBECDBF7C01FA015D
:101C9000CB0119A2223008F42AE08E010F5D1F4FFC
:101CA000822E912CB12CA12CBF01A50194010E9480
:101CB000EE37F901CA016A300CF5605DD8016E9308
:101CC0008D01232B242B252B79F790E080E01097B2
:101CD00021F0BD01C7010E94250EA1960FB6F89410
:101CE000DEBF0FBECDBFDF91CF911F910F91FF904F
:101CF000EF90BF90AF909F908F900895695CDECF7A
:101D00006115710511F00C94250E90E080E00895A6
:101D1000CF93DF93EA01462F682F83E495E00E947A
:101D2000480ABE0183E495E0DF91CF910C94800EC8
:101D3000CF93DF93EC018C818F5F833098F48C8399
:101D40000E94860AEC81F0E0EE0FFF1FE45FFE4F79
:101D50004081518161E070E090E080E0DF91CF91BF
:101D60000C94880E1C82ECCFCF93DF93EC018C8116
:101D70008F5F823098F48C830E94860AEC81F0E0B9
:101D8000EE0FFF1FEE5EFE4F4081518161E070E07B
:101D900090E080E0DF91CF910C94880E1C82ECCF14
:101DA000CF93DF93EC018C818F5F823098F48C832A
:101DB0000E94860AEC81F0E0EE0FFF1FEE5EFE4F00
:101DC0004081518161E070E090E080E0DF91CF914F
:101DD0000C94880E1C82ECCF40E150E0BC0182E5FF
:101DE00095E00E945C371092620562E575E083E43D
:101DF00095E00C94800ECF93DF93EC018C818F5F84
:101E0000823008F58C830E94860AEC8181E09091F3
:101E10003905911180E0E81318C04BE352E061E00E
:101E200070E090E080E00E94880EEC81F0E0EE0F20
:101E3000FF1FEE5EFE4F6081718183E495E0DF91CC
:101E4000CF910C94800E1C82DECFF0E0EE0FFF1FCE
:101E5000EE5EFE4F4081518161E070E090E080E0F5
:101E6000DF91CF910C94880ECF93DF93EC0181E04A
:101E700090913905911180E08C8362E073E090E0ED
:101E800080E00E94F60C0E94860A4BE352E061E07B
:101E900070E090E080E00E94880EEC81F0E0EE0FB0
:101EA000FF1FEE5EFE4F6081718183E495E0DF915C
:101EB000CF910C94800ECF93DF93EC014BE352E073
:101EC00061E070E090E080E00E94880EEC81F0E03C
:101ED000EE0FFF1FEE5EFE4F6081718183E495E09F
:101EE0000E94800E64EF71E080E090E00E944D045B
:101EF0008C81882329F088EC95E0DF91CF910895BB
:101F000082EB95E0FACFCF93DF93EC014BE352E005
:101F100061E070E090E080E00E94880EEC81F0E0EB
:101F2000EE0FFF1FEE5EFE4F6081718183E495E04E
:101F30000E94800E64EF71E080E090E00E944D040A
:101F40008C81811102C00E94220D90E080E0DF911F
:101F5000CF9108956115710521F086E594E00C9408
:101F6000250E90E080E00895CF93DF93E7ECF3E057
:101F700080E0EF019191992311F08927FACF1F9208
:101F80008F938DE392E09F938F93DF93CF930E9483
:101F900070388DE08B831C820F900F900F900F9004
:101FA0000F900F90DF91CF9108951F928F931F9202
:101FB00084E28F9383E492E09F938F9387EC93E086
:101FC0009F938F930E9470380E94B40F8DB79EB775
:101FD00008960FB6F8949EBF0FBE8DBF67EC73E0F6
:101FE00083EF94E00C94AA0FEF92FF921F93CF938C
:101FF000DF9390917503C2E0911117C0C091140650
:1020000010911806D09122062091120630911306E5
:1020100079019AE1E92291E2F922811128C0CC23C9
:1020200079F0C13049F430FF0FC08C2FDF91CF9190
:102030001F91FF90EF900895C23021F430FD04C04D
:10204000C1E0F3CFC330D1F380917403C8130FC044
:102050008091730318130BC080917203D81307C0CB
:102060008091700390917103E816F90649F33F934C
:102070002F931F92DF931F921F931F92CF931F9254
:1020800084E28F938BE492E09F938F9387EC93E0AD
:102090009F938F930E9470380E94B40F67EC73E097
:1020A00083EF94E00E94AA0FC0937403109373030C
:1020B000D0937203F0927103E09270038DB79EB7D4
:1020C0000E960FB6F8949EBF0FBE8DBFC0E0ADCF89
:1020D000CF93DF93EC018091100680FF41C086E032
:1020E0008D83809121068E8385E692E09F938F9366
:1020F00088E692E09F938F9387EC93E09F938F9372
:102100000E94703867EC73E090E080E00E94C20C9F
:10211000909122069C838D810F900F900F900F90CD
:102120000F900F90981708F48C838C811F928F93D7
:1021300087E792E09F938F9387EC93E09F938F9331
:102140000E9470380F900F900F900F900F900F908B
:1021500067EC73E081E090E0DF91CF910C94C20CCA
:1021600086E08D8380E18E8382E692E0BFCFCF93BD
:10217000DF93809114061F928F931F9284E28F93B6
:102180008CE792E09F938F93C7ECD3E0DF93CF93DC
:102190000E94703809900020E9F761EB71E0CE01F0
:1021A00001970E9455370E94B40F8DB79EB70896CD
:1021B0000FB6F8949EBF0FBE8DBF67EC73E083EF40
:1021C00094E0DF91CF910C94AA0F8F929F92AF92DF
:1021D000BF92CF92DF92EF92FF920F931F93CF9314
:1021E000DF9300D000D000D0CDB7DEB7082F10911C
:1021F00014068091510586FF05C08CEF810F8B304E
:1022000008F0AFC480911006F2E0DF2E80FD02C01E
:10221000DD24D394C09022060E9480044B015C010F
:102220009091140680911506981303C0002309F4B9
:1022300042C028EE820E23E0921EA11CB11C8091A8
:10224000120681FD02E01F92CF921F92DF9280E280
:1022500091E09F938F93E7ECEE2EE3E0FE2EFF924A
:10226000EF920E9470380FB6F894DEBF0FBECDBF5C
:10227000173009F4EFC208F078C1133009F465C2D1
:1022800008F063C1113009F48DC1123009F4EFC1B7
:1022900080912D0580FD02C083FF0DC08091120644
:1022A00081FD09C081E00E94720866E172E090E061
:1022B00080E00E94F60C8091630590916405A091E6
:1022C0006505B0916605A5019401281B390B4A0BE1
:1022D0005B0BDA01C901883E9340A105B10518F4F2
:1022E000013009F03EC48092630590926405A0928B
:1022F0006505B09266058091120681FD05C08AEFE2
:10230000810F823008F404C30E947E085C836D83D1
:102310007E83133009F08DC38091510587FF3BC048
:102320008F778093510560914C0670914D06809196
:102330004E0690914F06683E53E075078105910562
:1023400008F451C328EE33E040E050E00E94EE373D
:10235000122F032F24E630E040E050E00E94EE37D9
:102360003F932F930F931F938BE992E09F938F934B
:1023700087EC93E09F938F930E9470380FB6F89488
:10238000DEBF0FBECDBF47EC53E070E060E08AE0F7
:1023900090E00E94880E60916506709166068091BB
:1023A00067069091680620E13EE040E050E00E9420
:1023B000EE375F934F933F932F9387E892E09F937D
:1023C0008F9307EC13E01F930F930E947038A801BE
:1023D00061E070E090E080E00E94880E609161060C
:1023E00070916206809163069091640628EE33E056
:1023F00040E050E00E94EE375F934F933F932F935E
:102400008EE892E09F938F931F930F930E947038F2
:10241000A80161E070E087E090E00E94880E809162
:102420002D050FB6F894DEBF0FBECDBF80FFE2C210
:102430000E94860A2091330530913405211596EFCC
:10244000390751F1C9016AE070E00E94DA3797FF5D
:1024500003C09195819591099F938F93C9016AE07B
:1024600070E00E94DA377F936F9383EA92E09F9344
:102470008F9387EC93E09F938F930E94703847EC83
:1024800053E061E070E090E080E00E94880E0FB6BB
:10249000F894DEBF0FBECDBF2091350530913605D3
:1024A0002115F6EF3F0751F1C9016AE070E00E9483
:1024B000DA3797FF03C09195819591099F938F9388
:1024C000C9016AE070E00E94DA377F936F9383EA74
:1024D00092E09F938F9387EC93E09F938F930E945A
:1024E000703847EC53E061E070E085E090E00E94D6
:1024F000880E0FB6F894DEBF0FBECDBF80912D05BC
:10250000282F30E0A901559547955595479540FFEF
:1025100073C23595279520FF24C38B7F80932D05AB
:1025200081E026960FB6F894DEBF0FBECDBFDF91D7
:10253000CF911F910F91FF90EF90DF90CF90BF90C0
:10254000AF909F908F900C947208153009F43AC1A7
:1025500008F42EC181E00E94720861E872E0023046
:1025600009F08DC18CE892E02AC11B3009F430C11A
:1025700058F4193009F4AEC108F486C181E00E9414
:10258000720860E772E0EECF1E3F09F4ABC108F0BD
:1025900087C11E3009F07CCE81E00E94720863E49E
:1025A00072E0E0CF83E495E00E949C0A40E060E0A6
:1025B00083E495E00E94480A82E00E9472080E942B
:1025C000360A85ED92E00E94EC0E47EC53E070E095
:1025D00060E08AE090E00E94880E6091650670914C
:1025E0006606809167069091680620E13EE040E033
:1025F00050E00E94EE375F934F933F932F9387E80D
:1026000092E09F938F93FF92EF920E94703847EC75
:1026100053E061E070E090E080E00E94880E6091FD
:10262000610670916206809163069091640628EEBF
:1026300033E040E050E00E94EE375F934F933F93CA
:102640002F938EE892E09F938F93FF92EF920E94D8
:10265000703847EC53E061E070E087E090E00E9462
:10266000880E0FB6F894DEBF0FBECDBF11CE83E447
:1026700095E00E949C0A40E060E083E495E00E94BF
:10268000480A83E00E94720880915406882329F04A
:1026900063E083E495E00E942C0A8091430688233E
:1026A00029F065E083E495E00E942C0A0E94360A36
:1026B0008BEC92E00E94EC0E47EC53E070E060E09F
:1026C0008AE090E00E94880E60916506709166062F
:1026D000809167069091680620E13EE040E050E07E
:1026E0000E94EE375F934F933F932F9387E892E0DA
:1026F0009F938F9377ECE72E73E0F72EFF92EF9284
:102700000E947038A70161E070E090E080E00E94D4
:10271000880E6091610670916206809163069091C7
:10272000640628EE33E040E050E00E94EE375F930D
:102730004F933F932F938EE892E09F938F93FF9256
:10274000EF920E947038A70186CF86E00E9472083F
:1027500083E495E00E949C0A40E060E083E495E019
:102760000E94480A8091550690915606A0915706FE
:10277000B0915806892B8A2B8B2B29F063E083E4D8
:1027800095E00E942C0A80914306882329F065E099
:1027900083E495E00E942C0A0E94360A82EC92E0C3
:1027A0000E94EC0E8091510580688093510570CD98
:1027B00081E00E94720869EA72E087EB92E00E9471
:1027C000080D66CD81E00E9472086DE972E0F5CFD8
:1027D00081E00E9472086CE872E090E080E00E9464
:1027E000F60C64E672E087EC93E00E945537F7013F
:1027F00001900020E9F77F0160914C0670914D0631
:1028000080914E0690914F0628EE33E040E050E074
:102810000E9410388091220690E0281B390B3F93CC
:102820002F9386E992E09F938F939701215031096E
:102830007901FF922F930E94703867EC73E081E07A
:1028400090E00E94C20C0F900F900F900F900F908D
:102850000F901ECD81E00E947208023071F48091C9
:1028600010069091110694FF05C08CE892E06AE58D
:1028700072E0A5CF87EB92E0FACF6AE572E090E0D4
:1028800080E00E94F60C04CD81E00E9472088CE882
:1028900092E0023011F087EB92E06EE472E08FCFAD
:1028A00085E00E94720883E495E00E949C0A40E063
:1028B00060E083E495E00E94480A8AE392E00E9487
:1028C000EC0E47EC53E070E060E08AE090E00E949C
:1028D000880EDECC81E00E94720869E272E08EE22E
:1028E00092E06DCF0E94CD01882381F087E00E94A5
:1028F000720883E495E00E949C0A40E060E083E473
:1029000095E00E94480A80E292E0D9CF85E0EFCFBF
:1029100066E171E087EC93E00E94693880911406CB
:10292000863009F057C0C090EC05D090ED05E090DE
:10293000EE05F090EF050E94800440EEC40E43E9DE
:10294000D41E44E0E41EF11CA7019601261B370BA0
:10295000480B590BCA01B90128EE33E040E050E0C2
:102960000E94EE37C90137FDFCC06CE370E00E94A5
:10297000DA379F938F937F936F9381EB92E09F93CE
:102980008F9383EE93E09F938F930E94703863EE52
:1029900073E087EC93E00E945E380FB6F894DEBFD8
:1029A0000FBECDBF67EC73E081E090E026960FB6D6
:1029B000F894DEBF0FBECDBFDF91CF911F910F9175
:1029C000FF90EF90DF90CF90BF90AF909F908F904F
:1029D0000C94C20CC0900306D0900406E09005064B
:1029E000F0900606A8CF6FE072E087EC93E00E94BB
:1029F0005537C9CC82FDB5C0846080932D0586E033
:102A000090CD1F92CF921F92DF9280E291E09F9330
:102A10008F931F930F930E9470380FB6F894DEBF08
:102A20000FBECDBF47EC53E070E060E08AE090E07D
:102A300084C01E3F09F095C040E060E083E495E06B
:102A40000E94480A0E94360A80E292E00E94EC0E40
:102A50008E811F928F938D811F928F938C811F92F5
:102A60008F938CEA92E09F938F9307EC13E01F9370
:102A70000F930E947038A80161E070E090E080E060
:102A80000E94880E0FB6F894DEBF0FBECDBF8091B6
:102A90003905882309F4B5CF40E069E083E495E087
:102AA0000E94480A62E083E495E00E942C0A66E0F6
:102AB00083E495E00E942C0A80913B051F928F933E
:102AC00080913A051F928F9381EBE82E82E0F82ED9
:102AD000FF92EF921F930F930E947038A80170E04D
:102AE00060E08BE090E00E94880E41E069E083E4C2
:102AF00095E00E94480A61E083E495E00E942C0A78
:102B000066E083E495E00E942C0A80913D051F92C7
:102B10008F9380913C051F928F93FF92EF921F93AA
:102B20000F930E9470380FB6F894DEBF0FBECDBF72
:102B3000A80161E070E08BE090E026960FB6F89473
:102B4000DEBF0FBECDBFDF91CF911F910F91FF90E0
:102B5000EF90DF90CF90BF90AF909F908F900C94AC
:102B6000880E26960FB6F894DEBF0FBECDBFDF915C
:102B7000CF911F910F91FF90EF90DF90CF90BF907A
:102B8000AF909F908F900895809114068E3FB9F07A
:102B900090E080E00E94D1018EEF809314060E94A5
:102BA00080046093270670932806809329069093EB
:102BB0002A0681E00E94E51080E00C94F40F08954D
:102BC000CF93C82F80912D05877F80932D0580910D
:102BD000730590917405009759F0DC01ED91FC911B
:102BE0000280F381E02D0995C0E08C2FCF910895EC
:102BF000C111FBCF809114068E3FB0F00E94CB0232
:102C000080913905882389F30E9423099091140645
:102C10009E3F69F4882369F080913905882329F360
:102C200081E080933E05E1CF0E94C415E9CF88235F
:102C300099F310923E05D9CF81115BC08EEB92E0E3
:102C40009F938F931F9284E28F9381EC92E09F93E6
:102C50008F9387EC93E09F938F930E9470388DB78A
:102C60009EB708960FB6F8949EBF0FBE8DBF809199
:102C70001505882361F065E573E087EC93E00E9419
:102C80005E3865EF74E087EC93E00E945E38209137
:102C90002C052223E9F087EC93E0FC010190002051
:102CA000E9F7CF011F922F931F922AE32F9326EC6F
:102CB00032E03F932F9301979F938F930E94703838
:102CC0008DB79EB708960FB6F8949EBF0FBE8DBF06
:102CD0000E94B40F67EC73E083EF94E00E94AA0FA8
:102CE00080912B05882341F06AE083EF94E00C94F7
:102CF000F2058BEB92E0A4CF0895CF93DF93FC0114
:102D0000C481FFE0CF9FE00111241092C703662326
:102D100031F06BE372E087EC93E00E9469386EEC6F
:102D200072E0209781F0CC33D105CCF4BE0190E065
:102D300080E040E00E941706BC0187EC93E00E940F
:102D40005E3862ED72E087EC93E00E945E3867ECDB
:102D500073E081E090E0DF91CF910C94C20CCE0142
:102D60006CE370E00E94C637EC0190E080E040E048
:102D70000E941706BC0187EC93E00E945E38CD2BC1
:102D800031F067ED72E087EC93E00E945E386AED07
:102D900072E0D9CFCF93DF93EC0161E00E947D1602
:102DA0008C810E944B0364EF71E080E090E00E9410
:102DB0004D048C81882329F090E080E0DF91CF9151
:102DC00008958EEC95E0FACFFC019481943078F46C
:102DD0009F5F94838481813208F0148261E0948142
:102DE00080914306981360E0CF010C947D169C30CF
:102DF00010F49E5FEECF9C5FECCFCF93DF93EC019E
:102E0000809143068C836AEE72E090E080E00E943D
:102E1000F60C61E0CE01DF91CF910C947D16CF933B
:102E2000DF93EC011092C703662331F06BE372E08D
:102E300087EC93E00E9469386C8161110EC06EECE2
:102E400072E087EC93E00E945E3867EC73E081E00B
:102E500090E0DF91CF910C94C20C70E090E080E0A4
:102E600040E00E941706BC0187EC93E00E945E38A8
:102E70006EED72E0E6CFCF93DF93EC0161E00E944C
:102E80000F178C810E94140364EF71E080E090E0E2
:102E90000E944D048C81882329F090E080E0DF912E
:102EA000CF9108958EEC95E0FACFFC0184818530B6
:102EB00078F48F5F84838481893208F0148261E022
:102EC000948180915406981360E0CF010C940F1701
:102ED0008B5FF0CFCF93DF93EC01809154068C830E
:102EE00065EF72E090E080E00E94F60C61E0CE01B8
:102EF000DF91CF910C940F171F93CF93DF93D82FAF
:102F0000C62F142F1092C703411106C06BE372E065
:102F100087EC93E00E945E386D2F70E090E080E0D7
:102F200042E00E941706BC0187EC93E00E945E38E5
:102F300063EE72E087EC93E00E945E38113031F46A
:102F40006BE372E087EC93E00E945E386C2F70E0D8
:102F500090E080E042E00E941706BC0187EC93E01D
:102F60000E945E3867EC73E081E090E0DF91CF91E2
:102F70001F910C94C20CFC0184818F5F8C3338F458
:102F8000848341E0648180916E030C947C171482E9
:102F9000F8CFCF93DF93EC0163EC70E090E080E03A
:102FA0000E94F60C60916F036C8341E080916E0388
:102FB000DF91CF910C947C17FC0184818F5F8C335F
:102FC00038F4848341E0648180916E030C947C1713
:102FD0001482F8CFCF93DF93EC0169EB70E090E0BF
:102FE00080E00E94F60C60916F036C8341E0809159
:102FF0006E03DF91CF910C947C17FC018481809348
:103000006E0340E060916F030E947C1764EF71E0F3
:1030100080E090E00E944D0480E895E00895FC0176
:1030200084818F5F883138F4848340E060916F033E
:1030300084810C947C171482F8CFCF93DF93EC013A
:103040006FEA70E090E080E00E94F60CE9E3F5E0C2
:10305000838180936E03648160936F038C8340E06F
:10306000DF91CF910C947C17FC01848180936E03D7
:1030700040E060916F030E947C1764EF71E080E094
:1030800090E00E944D0485E895E00895FC0184815C
:103090008F5F883138F4848340E060916F038481CE
:1030A0000C947C171482F8CFCF93DF93EC0164EA81
:1030B00070E090E080E00E94F60CE9E3F5E08181A9
:1030C00080936E03628160936F038C8340E0DF9195
:1030D000CF910C947C17CF92DF92EF92FF920F93D7
:1030E0001F93CF93DF936C01F62E142FD22FCE2D8A
:1030F0001092C703E11006C06BE372E087EC93E027
:103100000E945E386F2D70E090E080E042E00E9407
:103110001706BC0187EC93E00E945E3865EE72E012
:1031200087EC93E00E945E38C13031F46BE372E0CB
:1031300087EC93E00E945E38612F70E090E080E0C1
:1031400042E00E941706BC0187EC93E00E945E38C3
:1031500065EE72E087EC93E00E945E38C23031F495
:103160006BE372E087EC93E00E945E38B60190E07A
:1031700080E042E00E941706BC0187EC93E00E94C9
:103180005E3865E573E087EC93E00E945E38C330FB
:1031900031F46BE372E087EC93E00E945E386D2FB0
:1031A00070E090E080E042E00E941706BC0187ECEE
:1031B00093E00E945E3863EE72E087EC93E00E9439
:1031C0005E38C43031F46BE372E087EC93E00E9428
:1031D0005E38602F70E090E080E042E00E941706C9
:1031E000BC0187EC93E00E945E3867EC73E081E0FD
:1031F00090E0DF91CF911F910F91FF90EF90DF90C2
:10320000CF900C94C20CAF92BF92CF92DF92EF920C
:10321000FF920F931F93CF93DF9300D000D000D085
:10322000CDB7DEB7FC01148110936F03F0906E03ED
:10323000B0906D03A0906C03C0906A03D0906B03B4
:1032400084E0E82E012F2F2D4B2D6A2DC6010E9400
:103250006B18F0EDCF16F7E0DF0620F080EDC81A0E
:1032600087E0D80AC982AA82BB82FC821D831E82A3
:10327000CE0101960E946C0964EF71E080E090E05D
:103280000E944D0488EC95E026960FB6F894DEBFB8
:103290000FBECDBFDF91CF911F910F91FF90EF90A7
:1032A000DF90CF90BF90AF900895EF920F93CF93A0
:1032B000DF93EC018C818F5F8C33B8F48C830E9498
:1032C000860A84E0E82E0C8120916E0340916D0304
:1032D00060916C0380916A0390916B030E946B185C
:1032E000DF91CF910F91EF9008951C82E8CFEF927C
:1032F0000F93CF93DF93EC016DE970E090E080E0F5
:103300000E94F60C00916F030C8384E0E82E20915C
:103310006E0340916D0360916C0380916A039091FC
:103320006B030E946B18DF91CF910F91EF9008957E
:10333000EF920F93FC01248120936E0383E0E82E2B
:1033400000916F0340916D0360916C0380916A035B
:1033500090916B030E946B1864EF71E080E090E045
:103360000E944D048EE995E00F91EF900895EF9241
:103370000F93CF93DF93EC018C818F5F8831B8F48A
:103380008C830E94860A83E0E82E00916F032C81D3
:1033900040916D0360916C0380916A0390916B037F
:1033A0000E946B18DF91CF910F91EF9008951C82CE
:1033B000E8CFEF920F93CF93DF93EC0168E970E0D1
:1033C00090E080E00E94F60C20916E032C8383E055
:1033D000E82E00916F0340916D0360916C03809122
:1033E0006A0390916B030E946B18DF91CF910F914C
:1033F000EF900895EF920F93FC01848190E09093F9
:103400006B0380936A0322E0E22E00916F03209108
:103410006E0340916D0360916C030E946B1864EF22
:1034200071E080E090E00E944D0483EA95E00F9106
:10343000EF900895EF920F93FC0184818F5F8D319F
:1034400090F48483848192E0E92E00916F032091AF
:103450006E0340916D0360916C0390E00E946B18C5
:103460000F91EF90089582E1ECCFEF920F93CF93FD
:10347000DF93EC0163E970E090E080E00E94F60CDD
:1034800080916A039EEE980F9B30A0F48C838C8110
:1034900092E0E92E00916F0320916E0340916D033D
:1034A00060916C0390E00E946B18DF91CF910F91B7
:1034B000EF90089582E18C8382E190E090936B031A
:1034C00080936A03E4CFEF920F93FC014481409311
:1034D0006D03EE24E39400916F0320916E036091DD
:1034E0006C0380916A0390916B030E946B1864EFE8
:1034F00071E080E090E00E944D0488EA95E00F9131
:10350000EF900895EF920F93CF93DF93EC018C81AE
:103510008F5F8032B8F48C830E94860AEE24E39495
:1035200000916F0320916E034C8160916C03809138
:103530006A0390916B030E946B18DF91CF910F91FA
:10354000EF90089581E0E7CFEF920F93CF93DF9351
:10355000EC016FE870E090E080E00E94F60C409192
:103560006D034C83EE24E39400916F0320916E036E
:1035700060916C0380916A0390916B030E946B18B9
:10358000DF91CF910F91EF900895EF920F93FC018F
:10359000648160936C03E12C00916F0320916E03B2
:1035A00040916D0380916A0390916B030E946B18A8
:1035B00064EF71E080E090E00E944D048DEA95E0B8
:1035C0000F91EF900895EF920F93CF93DF93EC015B
:1035D0008C818F5F8D30B0F48C830E94860AE12C41
:1035E00000916F0320916E0340916D036C81809177
:1035F0006A0390916B030E946B18DF91CF910F913A
:10360000EF90089581E0E8CFEF920F931F93CF934F
:10361000DF9300D000D000D0CDB7DEB78C0169E8D1
:1036200070E090E080E00E94F60C0E947E08822FFD
:10363000252F30936C0340936D0390E090936B03C0
:1036400080936A0350936E0360936F03F801348391
:10365000E12C062F632F0E946B1826960FB6F89464
:10366000DEBF0FBECDBFDF91CF911F910F91EF90C5
:103670000895CF93DF93482F50E070E060E02AE098
:1036800086E594E00E94340EEC0167EE72E086E578
:1036900094E00E94250E8C0F9D1FDF91CF9108951D
:1036A000AC01990F660B770B2AE083E495E00C944C
:1036B000340ECF93DF93EC018C818F5F8C839E81DE
:1036C000981710F48D818C830E94860A41E060E097
:1036D00083E495E00E94480A9C8180912206981319
:1036E00006C06BE372E083E495E00E94800E8C815B
:1036F00090E00E94501B69E972E083E495E0DF915D
:10370000CF910C94800ECF9380911006C1E080FD84
:10371000C2E081E090E0C13011F490E080E00E94CE
:103720006B37982F8FEF890F8E3F28F090E1C130D3
:1037300069F48CE009C086E0963030F0C13031F495
:10374000892F913108F080E1CF9108958091210671
:103750009817D0F7892FF8CFCF93DF93C9E3D5E03F
:1037600081E0888361E084E090E00E947F371D82E1
:10377000E1EEF5E081A992A9906192AB81AB81E085
:10378000DF91CF910C94E510CF93DF93C9E3D5E09F
:10379000188260E084E090E00E947F371D82E1EEB5
:1037A000F5E081A992A99F7E92AB81AB81E0DF9188
:1037B000CF910C94E510CF93DF93EC014BE352E0F3
:1037C00061E070E090E080E00E94880EEC81F0E023
:1037D000EE0FFF1FEE5EFE4F6081718183E495E086
:1037E0000E94800E64EF71E080E090E00E944D0442
:1037F0008C81811107C00E94AC1B8EEC95E0DF919B
:10380000CF9108950E94C41BF8CFEF92FF920F93BF
:103810001F93CF93DF93C82F062F142F809110068C
:10382000909111067C0121E0E222FF2480FF35C047
:103830008091210611110E94831BC63080F18C17E4
:10384000A0F1C0932206D0E0C0E011110EC060913B
:10385000220621E0EF2809F022E081E090E021300B
:1038600011F490E080E00E947F378091E105909113
:10387000E205019729F48091220690E00E94E3027C
:10388000002319F081E00E94E510CE01DF91CF9175
:103890001F910F91FF90EF90089580E1CBCF86E0CC
:1038A00080932206C1E0D0E0D0CF80932206C2E010
:1038B000D0E0CBCF0F931F93CF93DF93FC01048114
:1038C00000936F0310916E0341E0602F812F0E94DF
:1038D0007C17C9E3D5E01B830C83612F87E090E060
:1038E0000E947F376C8188E090E00E947F3764EF10
:1038F00071E080E090E00E944D048EEC95E0DF9155
:10390000CF911F910F9108950F931F93CF93DF9342
:10391000FC01048100936F0310916E0341E0602F5E
:10392000812F0E947C17C9E3D5E019830A83612F98
:1039300085E090E00E947F376A8186E090E00E94F7
:103940007F3764EF71E080E090E00E944D048EECE0
:1039500095E0DF91CF911F910F910895CF93DF9361
:10396000EC014BE352E061E070E090E080E00E9407
:10397000880E8C8190E00E94501B69E972E083E41C
:1039800095E00E94800E64EF71E080E090E00E947C
:103990004D046C818091100621E080FD22E081E0E1
:1039A00090E0213011F490E080E00E947F3740E009
:1039B00060E08C810E94051C88EC95E0DF91CF913E
:1039C0000895CF93DF93C82F48E050E087EC93E051
:1039D0000E94413780914E058823A9F088E0C89F56
:1039E000B0011124606440E083E495E00E94EF0997
:1039F000C7ECD3E0699183E495E00E942C0A83E050
:103A0000CF3CD807B9F7DF91CF910895BC0182E090
:103A100090E00C949537CF93C62F209110063091EB
:103A20001106823019F5216030931106209310069B
:103A300080E899EAA3E0B0E08093590690935A0693
:103A4000A0935B06B0935C068091100690911106DE
:103A50000E94061D0E94831B41E060E00E94051C3D
:103A6000CC2371F081E0CF910C94E5102E7F309340
:103A700011062093100680EC94EDA1E0B0E0DCCFBD
:103A8000CF9108952F923F924F925F927F928F92A3
:103A90009F92AF92BF92CF92DF92EF92FF920F93DD
:103AA0001F93CF93DF93CDB7DEB72A970FB6F89465
:103AB000DEBF0FBECDBF86E594E00E94EB047C0123
:103AC000892B09F416C6D12CC12C68E4262E62E09D
:103AD000362E7AE5472E72E0572ECE14DF040CF016
:103AE00008C686E594E00E94C904182F80912B0532
:103AF000882329F0612F83EF94E00E94F2051432AD
:103B000049F41093F50481E0809315059FEFC91ADD
:103B1000D90AE3CF9091F5049432C1F7E0911505ED
:103B2000E0320CF0E1C581E08E0F0E2E000CFF0B91
:103B3000ED50FB4F809315051D3009F0D3C512825F
:103B400026EF34E0309317052093160581E080932B
:103B50002A058091F60414E2180FB82EB926E7EF73
:103B6000F4E0DF0191919923B1F1903221F5809138
:103B70002A058A3064F010922A051092F5041092FA
:103B8000150510922C0580E00E941C16BFCF105E18
:103B9000B926DF0111971C92A0912A0581E08A0FB6
:103BA00080932A05AA0FBB0BAD50BB4F9496FC9394
:103BB000EE939397D6CF9A3209F447C09E3509F019
:103BC00046C002E01C92CF010E94C205013009F0FC
:103BD00041C01813D0CF81E08093750310922C055B
:103BE000B0902A058B159CF4EB2DEE0FFF0BEF50D8
:103BF000FB4F83A194A1DC012C912A3341F401965F
:103C00000E94C20580932C05BA94B0922A051092A6
:103C10001505E0911605F09117058081873409F4A8
:103C200069C3833509F452C1863461F481818534D6
:103C300009F4ABC094F5813309F48EC074F4803379
:103C400009F46DC00FEF1FEFA4C201E0BBCF190F45
:103C5000B92687CFB8128FCFBECF823409F486C081
:103C6000843481F7809114068F3F11F40C940E2652
:103C700082E090E00E94D1018FEF809314060E94B1
:103C8000D10A8091130687FF0E94230B81E00E94D6
:103C9000E51080E00E94F40F5AC0803509F4E0C0BE
:103CA0000CF034C0863471F680912A05833051F6C9
:103CB000E0911A05F0911B0580818053823008F055
:103CC000C1CFE0911805F0911905E081E254E5318A
:103CD00008F0B8CF0E2E000CFF0BEF58F14E0C94ED
:103CE0002F38C81E221EDC1EF01EF41EFE1E221ED1
:103CF000221E221E221E221E221E221E221E221EC4
:103D0000221E121F221E1C1F221E261F823509F48E
:103D1000DAC0833509F096CF0E94C41518C080918F
:103D20002A05823009F08ECFE0911805F09119052F
:103D3000809151059081903369F08F7B809351057C
:103D40008081803309F46AC781E00E94E51010E0A9
:103D500000E01FC28064F2CF90911406945081E07D
:103D60009B3008F080E00E94E015EECF80912A059C
:103D7000823009F067CF80911805909119050E9453
:103D80004B28862F0E947208E2CF0E94CB02DFCF21
:103D9000209110063091110681110CC030683093CB
:103DA00011062093100680911006909111060E9432
:103DB000061DCDCF3F77F3CF20911006309111062D
:103DC000882361F02D7F3093110620931006809197
:103DD0001006909111060E94061DB9CF2260F3CF04
:103DE00081E080932B05B3CF20911006309111060E
:103DF000882311F03D7FE7CF3260E5CF2091100698
:103E000030911106882311F0277FDDCF109207062D
:103E100010920306109204061092050610920606F0
:103E20002860D1CF2091100630911106882311F01F
:103E30002F7EC9CF2061C7CF209110063091110687
:103E4000882311F03B7FBFCF3460BDCF2091100697
:103E500030911106882311F02B7FB5CF2460B3CFAA
:103E600080912A0584300CF4EDCE8091120681FDFC
:103E7000E9CE80911805909119050E944B284B01BD
:103E800080911A0590911B050E944B28AEE1B5E088
:103E900024E030E010E2A9012F5F3F4FE0912A05B6
:103EA0000E2E000CFF0B4E175F072CF4ED91FD91C9
:103EB00031971083F0CF40911C0550911D05C4012E
:103EC0000E94880E44CF0E94220D41CF818183340D
:103ED00009F410C10CF06CC0833309F4C6C00CF0B7
:103EE0003FC0803309F49DC0813309F0ABCE80918F
:103EF0002A05873009F0A6CE8091220590912305EE
:103F00000E944B28B62E80912005909121050E9499
:103F10004B28A62E80911E0590911F050E944B28CC
:103F2000962E80911C0590911D050E944B28862E8F
:103F300080911A0590911B050E944B28762E809146
:103F40001805909119050E944B2869837A828B820B
:103F50009C82AD82BE82CE0101960E946C09F7CE92
:103F6000853309F49BC0813409F06CCE80912A0519
:103F7000833009F067CE80911805909119050E9451
:103F80004B28709353066093520689E090E00E949C
:103F9000953780911A0590911B050E944B287093CC
:103FA0005106609350068BE090E00E949537CFCE8B
:103FB0008C3409F42AC1DCF4883409F411C18B343F
:103FC00009F040CE80911805909119050E944B2868
:103FD000AB01BC0140936106509362066093630697
:103FE000709364068DE090E00E948D37B0CE8435EA
:103FF00009F433C1863509F025CE80912A05823037
:1040000009F020CE80911805909119050E944B2847
:104010006093590670935A0680935B0690935C06F2
:1040200096CE80912A05823009F00CCEE0911805D9
:10403000F0911905108180915105103391F08E7F18
:104040008093510581E00E94E510809110069091C7
:104050001106103341F4916090931106809310067D
:10406000B6CE8160EDCF9E7FF7CF80912A0582305A
:1040700009F0E8CD809114068250823008F0E2CD3C
:1040800080911805909119050E944B28862F0E9457
:104090004B038091510586FD5ACE56CE80912A055C
:1040A000823009F0CFCDE0911805F091190580819B
:1040B000813399F02CF4803369F001E010E069C09D
:1040C000813471F08D34C9F78091120690911306F6
:1040D00090680BC00E94230B3ACE0E94400B37CE53
:1040E00080911206909113069F7790931306809308
:1040F00012062DCE00912A058EEF800F823008F037
:10410000A1CD80911805909119050E944B28162F7A
:1041100040E0033009F051C0E0911A05F0911B0511
:10412000808141E08D3409F048C08AEF810F8B34E3
:10413000C8F48FEF91E00E946B3781508E3F90F072
:10414000612F8FEF91E00E947F37109321068091BD
:104150002206181728F441E061E0812F0E94051C17
:1041600000E001C001E010E0809121061F928F93D2
:104170003F922F9285EF94E09F938F930E94703827
:104180000F900F900F900F900F900F9081E0809301
:104190001505809115058F3F31F081E0012B09F065
:1041A00080E00E941C161092F504109215051092E2
:1041B000750380E00E94F40FA9CC80912D0580FF4B
:1041C00004C080912206811740F061E0812F0E9497
:1041D000051C8C0180912206C9CF01E010E0FACFC6
:1041E00080912A05823009F02DCD809114068250ED
:1041F000823008F027CD80911805909119050E9412
:104200004B28862F0E94140344CF80912A058230C8
:1042100009F018CDE0911805F091190580818133DE
:104220000CF410CD83335CF0813409F00BCD809118
:1042300010069091110694FDF1C48F7D09C061E0D4
:1042400080530E940B1D8091100690911106806290
:104250009093110680931006BECD80912A0585307B
:1042600009F0F0CC80911805909119050E944B2817
:10427000A62E80911A0590911B050E944B28862E30
:1042800080911C0590911D050E944B28B62E8091AF
:104290001E0590911F050E944B28962EA11009C063
:1042A000811007C0B11005C0611103C00E94C41B7A
:1042B0004ECDA0923A0580923B056A2D85E090E0B4
:1042C0000E947F3760913B0586E090E00E947F3737
:1042D000B0923C0590923D056B2D87E090E00E94E6
:1042E0007F3760913D0588E090E00E947F370E9413
:1042F000AC1B2DCDE181E053E73208F0A3CC0E2EAC
:10430000000CFF0BEA57FE4D0C942F38AD21221EF6
:10431000221ECF21221ED421221E221E221E221E38
:10432000221E221E221E221E221E221E221EF821B4
:10433000221E072229224922562270228C228F22F5
:10434000221E221E221E221E221E221ED622221EB5
:10435000221EED221E2342235F238091E1059091CE
:10436000E2050297D1F00E94CD0191E0811101C0D8
:1043700090E01F929F933F922F9285EF94E09F933E
:104380008F930E94703881E0809315050F900F90F5
:104390000F900F900F900F90DACC92E0EACF8091BF
:1043A00043061F928F93E7CF8091130687FF1EC0AD
:1043B0008DE41F928F9380913706282F082E000CD2
:1043C000330B3F938F938AEE92E09F938F9385EF09
:1043D00094E09F938F930E94703881E0809315053D
:1043E0000FB6F894DEBF0FBECDBFB1CC81E4E1CFF4
:1043F000809151068F93809150068F938091530640
:104400008F93809152068F9380E293E0DECF80916C
:104410001006A09021060A2D10E080FD02C000E1E8
:1044200010E00E94831B1F928F93809122061F929F
:104430008F931F930F931F9286E08F938AE193E0EF
:104440009F938F9385EF94E09F938F930E94703892
:10445000C4CF809139058823A1F040913A0580911D
:104460003B0590E020913C0530E060913D0570E017
:104470007F936F933F932F939F938F931F924F93AD
:10448000DDCF40E070E060E030E020E090E080E0F0
:10449000EFCF809111068F93809110068F938091BA
:1044A00022061F928F935F924F9291CF80910D06BB
:1044B0008F5F1F928F93809108068F5F1F928F935B
:1044C0008091F1058F5F1F928F93E0EFF2E0FF93F1
:1044D000EF9385EF94E09F938F930E9470387DCF88
:1044E00080915C068F9380915B068F9380915A0632
:1044F0008F93809159068F9380914F068F9380916F
:104500004E068F9380914D068F9380914C068F932A
:1045100089EF92E09F9395CF8091540642CFDE01C0
:104520001196EEE0F0E091E29093570084918D9324
:104530003196E831F105C1F780E28093F504898175
:104540008093F6048A818093F7048B818093F8042A
:104550008C818093F9048D818093FA048E818093FD
:10456000FB044E01F7E08F0E911C10E000E0D40137
:104570008D914D011F928F93EEE3F2E0FF93EF9345
:10458000C80184509B4F9F938F930E9470380E5F99
:104590001F4F0F900F900F900F900F900F900830BB
:1045A000110529F781E080931505D1CB809138055D
:1045B0008F93809137058F93809134058F938091ED
:1045C00033058F93809136058F93809135058F93B6
:1045D0004DE153E05F934F937CCF809113068F930F
:1045E000809112068F93809118061F928F9380916D
:1045F0002B0690912C06A0912D06B0912E0640918D
:104600003306509134066091350670913606840F5A
:10461000951FA61FB71FBF93AF939F938F93809152
:1046200014061F928F93E1E0F3E0FF93EF9385EF81
:1046300094E09F938F930E947038CFCE0E947E08A3
:1046400029833A834B835C836D837E831F927F93A0
:104650008D811F928F938C811F928F938B811F92DC
:104660008F938A811F928F9389811F928F9384E108
:1046700093E09F938F9385EF94E09F938F930E9495
:104680007038ABCE809164068F93809163068F93D0
:10469000809162068F93809161068F938091680666
:1046A0008F93809167068F93809166068F93809198
:1046B00065068F9326E233E03F932F93C3CE61EBE1
:1046C00071E085EF94E00E94553765E573E085EF72
:1046D00094E00E945E386CEC70E085EF94E00E94FC
:1046E0004A3760CF128312CA1092F5041092150552
:1046F0000DCAA89580914E058823C1F080914C0584
:1047000080620E943F0282E10E940A080E94E60144
:1047100080914C05806261E070E090E00E94A5020B
:1047200085ED95E00E94940780958F71982F917088
:1047300080FD12C080916A05823071F440916B0552
:1047400050916C0560916D0570916E05452B462B5F
:10475000472B11F410926A0510916A05112309F490
:104760005BC0113069F440916B0550916C0560910C
:104770006D0570916E05452B462B472B09F043C202
:10478000992309F47DC080916F0590917005A091E7
:104790007105B0917205892B8A2B8B2B09F470C09F
:1047A000123009F06DC00E948004C0906F05D09057
:1047B0007005E0907105F09072056C197D098E0905
:1047C0009F09603177428105910508F459C0109224
:1047D0006F051092700510927105109272051F926C
:1047E0001F931F9284E28F938EE293E09F938F93A7
:1047F00087EC93E09F938F930E9470380E94B40FD0
:1048000067EC73E083EF94E00E94AA0F0FB6F89470
:10481000DEBF0FBECDBF34C0992309F4F6C180912D
:104820006B0590916C05A0916D05B0916E05892B7B
:104830008A2B8B2B51F40E94800460936B0570933C
:104840006C0580936D0590936E050E948004009125
:104850006B0510916C0520916D0530916E05DC01A2
:10486000CB01801B910BA20BB30B20916A05211188
:104870006FC0C297A105B10518F081E080936A0569
:1048800080916A05209110063091110637FD6BC0AA
:10489000109114061450813009F02FC180916B05DE
:1048A00090916C05A0916D05B0916E05892B8A2BB6
:1048B0008B2B09F06CC010926A0581E01B3008F068
:1048C00080E00E94E015882309F461C0809173059F
:1048D00090917405009709F457C1DC01ED91FC91AA
:1048E0000480F581E02D09959093740580937305FC
:1048F000009709F428C1B5E08E3C9B0729F010E031
:10490000E5E0883C9E0719F4DC0114961C91DC015B
:10491000ED91FC910190F081E02D09958091730556
:1049200090917405B5E08E3C9B0721F0E5E0883C52
:104930009E0769F5112359F11150DC0114961C935F
:104940001497ED91FC910280F381E02D09951FC031
:10495000213009F095CF843F9140A105B10508F4BD
:104960008FCF82E08BCF813009F0A5C080916B059D
:1049700090916C05A0916D05B0916E05892B8A2BE5
:104980008B2B29F410926A0580E00E94D50F0E94BB
:1049900080046B017C0180912E0590912F05A091E0
:1049A0003005B0913105A7019601281B390B4A0B40
:1049B0005B0BDA01C901883E9340A105B10508F4FB
:1049C00062C080913205882309F417C185E00E94F6
:1049D0000F089C013F7194FD306F4AE0429FC00177
:1049E000439F900D112497FD0F9654E09595879560
:1049F0005A95E1F7909334058093330588E60E9439
:104A00003F028EE00E940A0880E20E940A080E948B
:104A1000E60188E60E943F0281E10E940A080E94A6
:104A2000E60162E070E088E690E00E94A50288233B
:104A300009F4E6C085ED95E00E949407182F85EDF6
:104A400095E00E94940720E0312F282B46E0359511
:104A500027954A95E1F74AE0429FC001439F900D98
:104A6000112497FD03969595879595958795909335
:104A7000360580933505C0922E05D0922F05E09221
:104A80003005F09231052A960FB6F894DEBF0FBEBE
:104A9000CDBFDF91CF911F910F91FF90EF90DF90ED
:104AA000CF90BF90AF909F908F907F905F904F90EE
:104AB0003F902F900895823009F069CF80916B0567
:104AC00090916C05A0916D05B0916E050097A105C0
:104AD000B10509F45CCF80936F0590937005A093A6
:104AE0007105B093720510926B0510926C051092CF
:104AF0006D0510926E0581E048CF823009F047CFF6
:104B000080916B0590916C05A0916D05B0916E053B
:104B10000097A105B10509F43ACF80936F059093F2
:104B20007005A0937105B093720510926B051092F9
:104B30006C0510926D0510926E0580912D05877F92
:104B400080932D05C3CE0E94CB0280915105982FF2
:104B50009F7B20917505213099F48E7B80935105C0
:104B600081E00E94E51081E00E94E510809112062C
:104B700090911306977F909313068093120607CFA8
:104B8000916090935105ECCF80911206909113069D
:104B90009860909313068093120690911406925099
:104BA00081E0923008F080E091E089278093D4057D
:104BB00080915105809581708093750587E00E94F2
:104BC00072088091510580648093510588EC95E0CE
:104BD0001B3020F00E94C4158EEC95E09093740574
:104BE000809373058091730590917405DC01ED91BC
:104BF000FC910190F081E02DA9CE80E096EFFACEF5
:104C000080E096EF34CF911120CE10926B05109278
:104C10006C0510926D0510926E0532CE10E000E02A
:104C2000BCCACF93C82F8091120690911306826060
:104C3000909313068093120682E00E94E51080E0B4
:104C40000E94F40F0E94421D8091E1059091E205BF
:104C50000297C1F370E060E090E080E00E945E0B9C
:104C60000E94CD018111EECFCC2361F31092140686
:104C700080911206909113068D7F90931306809376
:104C80001206CF9108951F920F920FB60F92112422
:104C90002F933F938F939F93AF93BF938091BF03C5
:104CA0009091C003A091C103B091C2033091BE03A3
:104CB00023E0230F2D3758F50196A11DB11D209338
:104CC000BE038093BF039093C003A093C103B0932E
:104CD000C2038091C3039091C403A091C503B09116
:104CE000C6030196A11DB11D8093C3039093C40315
:104CF000A093C503B093C603BF91AF919F918F91CD
:104D00003F912F910F900FBE0F901F90189526E89E
:104D1000230F0296A11DB11DD2CF1F920F920FB685
:104D20000F9211242F933F934F935F936F937F9331
:104D30008F939F93AF93BF93EF93FF93E091020103
:104D4000F09103010995FF91EF91BF91AF919F9170
:104D50008F917F916F915F914F913F912F910F9024
:104D60000FBE0F901F9018951F920F920FB60F92C3
:104D700011242F933F934F935F936F937F938F9360
:104D80009F93AF93BF93EF93FF93E0910001F09156
:104D900001010995FF91EF91BF91AF919F918F9183
:104DA0007F916F915F914F913F912F910F900FBE27
:104DB0000F901F9018951F920F920FB60F9211240B
:104DC0002F933F934F935F936F937F938F939F9313
:104DD000AF93BF93EF93FF9386E594E00E940B059A
:104DE000FF91EF91BF91AF919F918F917F916F91C3
:104DF0005F914F913F912F910F900FBE0F901F9099
:104E000018951F920F920FB60F9211242F938F9324
:104E10009F93EF93FF93E0916604F0916704808184
:104E2000E0916C04F0916D0482FD1BC09081809133
:104E30006F048F5F8F7320917004821741F0E091AF
:104E40006F04F0E0EA5AFB4F958F80936F04FF9157
:104E5000EF919F918F912F910F900FBE0F901F9008
:104E600018958081F4CF1F920F920FB60F921124E4
:104E70002F933F934F935F936F937F938F939F9362
:104E8000AF93BF93EF93FF938091B900887F8036F3
:104E900009F44AC0F0F5883209F4A5C018F580314C
:104EA00009F499C0B8F4882309F4F2C0883009F4F1
:104EB00092C0FF91EF91BF91AF919F918F917F91A0
:104EC0006F915F914F913F912F910F900FBE0F9077
:104ED0001F901895883109F486C0803251F780936D
:104EE0002F0414C0803409F49BC040F48033B9F31C
:104EF0008833F9F680932F0485ECAEC0803509F431
:104F000083C0883509F494C0883499F60E949A05C4
:104F1000D0CF883909F48AC038F5883729F050F4A1
:104F2000883611F0803729F683E08093310410929F
:104F3000B80355C0883809F479C0803919F0803831
:104F400009F0B7CF8091B803803208F06FC0E091CC
:104F5000B80381E08E0F8093B8038091BB00F0E02E
:104F6000E856FC4F80833BC0803B39F0D0F4803A58
:104F700009F477C0883A09F09CCF84E0809331042B
:104F80001092970310929603F0E0E0E0099580916B
:104F9000960381110FC081E08093960310927603EF
:104FA00009C0803C09F4A8CF883C09F4A5CF883B10
:104FB00009F07FCFE091970381E08E0F80939703F4
:104FC000F0E0EA58FC4F80818093BB0090919703FA
:104FD0008091960329C080910C048093BB0085ECDE
:104FE0008093BC0066CF90912E0480912D04981779
:104FF00058F5E0912E0481E08E0F80932E04F0E0AE
:10500000E35FFB4F8081E9CFE0912E0481E08E0FBA
:1050100080932E048091BB00F0E0E35FFB4F808320
:1050200090912E0480912D049817C8F285E8D8CF6E
:10503000E0912E0481E08E0F80932E048091BB00BE
:10504000F0E0E35FFB4F80838091300481115ECFFD
:1050500081E080930B0484EA8093BC0010923104B9
:1050600028CF8091B803803230F4E091B803F0E0AB
:10507000E856FC4F10820E949A056091B80370E0D8
:1050800088E993E0F0E0E0E009951092B80334CFAE
:1050900010922F043BCFCF93DF93EC0120E030E060
:1050A000A901E991EE2391F0AAE0B0E00E944B380B
:1050B0002E2FEE0F330B20533109032E000C440B1F
:1050C000550B260F371F481F591FEBCFCA01B901D7
:1050D000DF91CF910895109259041092580488EEF0
:1050E00093E0A0E0B0E080935A0490935B04A09317
:1050F0005C04B0935D048CE291E09093570480933C
:10510000560485EC90E0909363048093620484ECF1
:1051100090E0909365048093640480EC90E0909319
:1051200067048093660481EC90E090936904809317
:10513000680482EC90E090936B0480936A0486ECA0
:1051400090E090936D0480936C0410926F04109221
:105150007004109271041092720410922C058EE368
:1051600091E09093F4048093F30488E791E09093A6
:10517000CF058093CE0581EE92E09093D105809388
:10518000D00580E091E0980FE82FF0E0EE0FFF1FD0
:10519000E859FE4F20813181232B09F024C18093EF
:1051A000D30582E691E09093C9058093C8058BED05
:1051B00092E09093CB058093CA0580E091E0980F30
:1051C000E82FF0E0EE0FFF1FE85AFE4F20813181FB
:1051D000232B09F00AC18093CD0588E192E09093DA
:1051E000C2058093C10580E293E09093C40580934B
:1051F000C3058EE092E09093BD058093BC0588E1E5
:1052000093E09093BF058093BE0584E092E0909375
:10521000B8058093B7058EE093E09093BA0580932C
:10522000B9052AEF31E03093B3052093B20520EFA2
:1052300031E03093AE052093AD059093B005809397
:10524000AF0586EE91E09093A9058093A8058CEDBB
:1052500091E09093A4058093A30582ED91E0909353
:105260009F0580939E0588EC91E090939A0580932A
:10527000990582E093E090939C0580939B052EEB2B
:1052800031E0309395052093940590939705809392
:10529000960584EB91E09093900580938F058AEAC0
:1052A00091E090938B0580938A0580EA91E090933A
:1052B00086058093850586E991E09093810580932A
:1052C00080058CE891E090937C0580937B0585EFC9
:1052D00092E090937E0580937D0582E891E0909323
:1052E0007705809376058AEE92E090937905809316
:1052F000780510926A0510926B0510926C05109259
:105300006D0510926E0510926F0510927005109247
:105310007105109272051092740510927305109227
:1053200046051092450580E591E0909344058093F1
:10533000430582E080934E0510924D0580E28093F4
:105340004C051092470580EA95E1AFEFBFEF8093DF
:105350003F0590934005A0934105B09342051092FC
:1053600032051092D8051092D70588EE93E0A0E0A0
:10537000B0E08093D9059093DA05A093DB05B09354
:10538000DC0582E292E09093D6058093D50581E01A
:105390008093F2051092F30510926906109265064B
:1053A0001092660610926706109268068DE090E0F3
:1053B0000E9473376F3F7F4F8F4F9F4F39F440E00C
:1053C00050E0BA018DE090E00E948D378DE090E0D2
:1053D0000E94733760936106709362068093630640
:1053E000909364060895892FCDCE892FE7CECF9371
:1053F000DF9300D000D01F92CDB7DEB7789484B58C
:10540000826084BD84B5816084BD85B5826085BDC0
:1054100085B5816085BD80916E00816080936E004E
:105420001092810080918100826080938100809140
:1054300081008160809381008091800081608093F1
:1054400080008091B10084608093B1008091B000B1
:1054500081608093B00080917A00846080937A00AC
:1054600080917A00826080937A0080917A008160D6
:1054700080937A0080917A00806880937A001092FD
:10548000C1000FB6F894A895809160008861809360
:105490006000109260000FBE60E971E080E090E073
:1054A0000E944D04E0916604F091670482E08083DD
:1054B000E0916204F09163041082E0916404F09141
:1054C000650480E1808310926E04E0916A04F0919B
:1054D0006B0486E08083E0916804F0916904808128
:1054E00080618083E0916804F09169048081886024
:1054F0008083E0916804F0916904808180688083F2
:10550000E0916804F091690480818F7D808386E258
:1055100090E0909368058093670588E08093690523
:1055200061E070E087E695E00E946C061092EA0365
:105530001092E90310923304109255041092310432
:1055400081E08093300410920B0488B1806388B9A5
:105550008091B9008E7F8093B9008091B9008D7FD2
:105560008093B9008CE08093B80085E48093BC0000
:10557000A8951092510580914C0580620E943F02CF
:1055800080E00E940A088FE10E940A080E94E6015A
:10559000882309F449C180914E05823009F044C145
:1055A00010924E0580914E05882319F087E00E94E5
:1055B000310887E00E94720862E071E080E00E949A
:1055C000E11C6AEF70E081E00E94E11C62EF70E094
:1055D00082E00E94E11C6AEE70E083E00E94E11C20
:1055E00062EE70E085E00E94E11C83E495E00E9499
:1055F0009C0A68ED70E090E080E00E94F60C40E1CB
:1056000050E062ED70E082E595E00E945C37109218
:10561000620541E060E083E495E00E94480A62E5AB
:1056200075E083E495E00E94800E81EB91E00E949A
:10563000EC0E6CED75E080E090E00E944106A895CC
:1056400010922B051092F5041092150557984F9B58
:105650007AC181E08093420603E210E0109339069C
:105660000093380688E080933A0688E396E00E942B
:10567000620610933C0600933B0680E180933D0652
:105680008BE396E00E9462060E94230B10921406A0
:105690001092150682E090E00E9479378C018F3FCE
:1056A000980751F090FF08C0809151058160809368
:1056B000510581E00E94E51085E290E00E946B3781
:1056C000F82E80930E0686E290E00E946B3780935E
:1056D0000F068FEF8F0D8E3F30F089E180930E061D
:1056E0008BE480930F0668E373E086E594E00E9404
:1056F000800E80910E060E94391B68E473E086E5F7
:1057000094E00E94800E80910F060E94391B8091C8
:105710004206882309F41AC185E00E94AC0286E0A3
:105720000E94AC0283E290E09093FB058093FA051F
:1057300082E08093FC058AEF95E00E94620699E280
:10574000E92EF12CF092FE05E092FD0588E08093B1
:10575000FF0561E070E08DEF95E00E946C06F0922D
:105760000106E092000680E18093020661E070E0AD
:1057700080E096E00E946C06D0904206F092E4052C
:10578000E092E30584E08093E50570E060E083EE5D
:1057900095E00E946C0688E09BE090930101809365
:1057A000000180916900836080936900E89A86E037
:1057B0008D8389E290E0DD2019F01D8283E290E084
:1057C0002D819093EA058093E90581E001C0880F5F
:1057D0002A95EAF78093EB0589EE95E00E94620630
:1057E0000E94D90B0E94D10A1092800080E49FE1B0
:1057F000909387008093860081E180938100229AB4
:105800008091800080628093800090E080E00E9420
:10581000D1010F3F100709F0B4C010921106109289
:10582000100682E0F82EB5C080914C0580620E947F
:105830003F028CE00E940A088FE10E940A080E9441
:10584000E601882329F080914E05823009F4A8CE24
:1058500080914C0580620E943F0281E00E940A080C
:1058600080E00E940A080E94E60190914E0588237C
:1058700019F0923009F494CE923019F481E08093BB
:105880004E058091470588608093470582E08093AC
:105890004A0510924B051092500510924F0513E0E7
:1058A00068E383E495E00E94DC0968E183E495E025
:1058B0000E94DC091150A1F768E283E495E00E94A0
:1058C000DC0968E083E495E00E94DC0965E070E0B3
:1058D00080E090E00E944D0460914705606240E0E6
:1058E00083E495E00E94EF0965E070E080E090E0DD
:1058F0000E944D0460914705606240E083E495E0BA
:105900000E94EF0965E070E080E090E00E944D04A5
:105910008CE08093480580914E05882331F040E06B
:105920006CE083E495E00E94EF0983E495E00E9437
:105930009C0A82E08093490540E066E083E495E0BC
:105940000E94EF092FCE1092420686CE83E290E0AD
:105950009093F5058093F40581E08093F60584EF3C
:1059600095E00E94620689E290E09093F8058093AA
:10597000F70580E88093F90587EF95E00E946206BD
:10598000D1CE1093110600931006FF24F39400FD6E
:1059900048CF809110069091110694FF09C085FDB3
:1059A00007C08062909311068093100602E0F02EEB
:1059B0008BE090E00E9479378C01909351068093A0
:1059C000500689E090E00E947937909353068093C7
:1059D00052060F3F1F4F21F41092510610925006AD
:1059E000019631F48CED90E090935306809352062B
:1059F000109248061092490610924A0610924B06E1
:105A000010924C0610924D0610924E0610924F06C0
:105A100010923E0610923F061092400610924106E8
:105A200080E092E090931306809312068FEF91E04E
:105A30000E946B378093210681508E3F18F080E5DD
:105A4000809321061092F00581E190E00E946B376F
:105A50008093F1051092070682E190E00E946B3777
:105A6000809308061092090610920A0610920B06FF
:105A700010920C0683E190E00E946B3780930D0634
:105A80001092030610920406109205061092060664
:105A900081E00E94F40F80911006909111068E71A2
:105AA0009670892BD1F183E00E94720880911006D4
:105AB00081FF04C081E991E00E94170D80911006DA
:105AC00082FF04C080E891E00E94170D80911006CB
:105AD00083FF04C083E791E00E94170D80911006B8
